:020000040800F2
:10000000C80900209D010008471300084313000899
:1000100045130008A9020008B115000800000000FF
:100020000000000000000000000000004B1300086A
:10003000AB02000800000000491300084D1300083F
:10004000B7010008B7010008B7010008B7010008B0
:10005000B7010008B7010008B7010008B7010008A0
:10006000B7010008B7010008B7010008B701000890
:10007000B7010008B7010008B7010008B701000880
:10008000B7010008B7010008B7010008B701000870
:10009000B7010008B7010008B7010008B701000860
:1000A000B7010008B7010008B7010008B701000850
:1000B000B7010008B7010008B7010008B701000840
:1000C000B7010008B7010008B7010008B701000830
:1000D000B701000889150008951500089D1500084E
:1000E000B7010008B7010008B7010008B701000810
:1000F000B7010008B7010008B7010008B701000800
:10010000B7010008B7010008B7010008B7010008EF
:1001100009140008B7010008B7010008B70100087A
:10012000B7010008B7010008B7010008B7010008CF
:10013000B7010008B7010008B7010008B7010008BF
:10014000B7010008B7010008B7010008B7010008AF
:10015000B7010008B7010008B7010008A51500089D
:10016000B7010008B7010008B7010008B70100088F
:10017000B7010008B7010008B7010008000000003F
:10018000B7010008B7010008DFF80CD000F07AF8DA
:1001900000480047B5150008C809002006488047F8
:1001A00006480047FEE7FEE7FEE7FEE7FEE7FEE75C
:1001B000FEE7FEE7FEE7FEE7ED1300088901000811
:1001C0002DE9F05F0546002092469B46884606468C
:1001D000814640241BE0284641464746224600F01F
:1001E00041F853465A46C01A914110D31146184659
:1001F000224600F028F82D1A67EB01084F462246E8
:100200000120002100F01FF817EB00094E41201ECD
:10021000A4F10104DFDC484631462A464346BDE8E6
:10022000F09FD2B201E000F8012B491EFBD27047CB
:100230000022F6E710B513460A4604461946FFF7B2
:10024000F0FF204610BD202A04DB203A00FA02F11C
:10025000002070479140C2F1200320FA03F31943B4
:1002600090407047202A04DB203A21FA02F0002156
:10027000704721FA02F3D040C2F1200291400843B6
:1002800019467047064C074D06E0E06840F0010350
:1002900094E8070098471034AC42F6D3FFF778FF94
:1002A000E4190008041A0008FEE77047EFF3108015
:1002B00072B6FEE7816B022908D1052181630068CF
:1002C000016821F0010101600020704780218165F3
:1002D00001207047B0B5044600F0E0F80546EC4850
:1002E000611C406818BF044400F0D8F8401BA042CD
:1002F000FAD3B0BD2DE9FC4F5F4A082490425F4A13
:1003000008BF072402444FEAB223072B38BF4FEA45
:10031000B2244FF0010B4FF000084FF0000E002206
:100320000094BEF1200F08BFBDE8FC8F0F680BFAE8
:1003300002F6374200F093804F68122F00F295804A
:100340000BFA07F414F0061F00F08F80032303FA62
:100350000EF48368CD68A34305FA0EF52B43836042
:10036000C7F3001345689340B5432B436FEA040C71
:100370004FEA420A4360C4688D6804EA0C0405FA37
:100380000AF52C43C46047F01004122C12D108F077
:100390001C040F2303FA04F56FF0030303EA52076A
:1003A0000744D7F820900B6929EA0505A3402B43A1
:1003B0003B624F68036807F0030403EA0C0304FA86
:1003C0000AF423430360FB0049D5002301932E4B1D
:1003D0002B4F1C461B6822F0030543F48043236027
:1003E0002368BC4603F4804301933D44019F274F9B
:1003F00008F00C030F24B946EF599C4027EA040487
:10040000009F07FA03F3234345F80930DCF8003076
:100410004D6843EA0604EF0358BF23EA0604CCF80C
:100420000040DCF80430AF0343EA060458BF23EA77
:100430000604CCF80440DCF80830EF0243EA060476
:1004400058BF23EA06040F4BCCF808401F461B6830
:10045000AD0243EA060458BF23EA06043C6008F1F3
:1004600004080EF1020E01325BE7032303FA0EF4D7
:100470006FEA040CF2467EE7001C02400000FEBF5B
:10048000003C01400C3C01404438024008FCFFFFA6
:10049000002A08BF09048161704700007D48006898
:1004A000704700BFF8B548B30446006C20B900207F
:1004B000E063204600F0AEF8242020642068016844
:1004C00021F001010160016841F40041016001680F
:1004D00021F40041016000F00DFA4949494B002226
:1004E00088424FF0000138BF0121984238BF0122F5
:1004F0006368454DAB4238BF0A460AB10120F8BDDA
:100500004249434EB0FBF1F22168B3424D6825F0F9
:100510003F0545EA02054D600D6A25F03F0511D8FB
:1005200001322A430A625A000138B0FBF2F04CF65D
:10053000FF7301306FF31F30042898BF0420CA698D
:100540009A4337E04FF4967672434FF47A76B2FBD3
:10055000F6F2013801322A430A62CA694CF6FF7585
:10056000AA43A56845B119265E43B0FBF6F60427F9
:10057000013667F31F3606E003EB4306B0FBF6F6E1
:1005800001366FF31F36360509D055B119256B4377
:10059000B0FBF3F00423013063F31F3008E00120C7
:1005A00008E003EB4303B0FBF3F001306FF31F30BF
:1005B00040F400401043C861E0690A6804F10C0689
:1005C00022F0C0021043226A10430860886848F293
:1005D000FF3290436CCE184310438860C86820F007
:1005E000FF0028433043C860086840F001000860FD
:1005F00000202021A064216420636064F8BD00BF56
:1006000080841E0000093D00A186010040420F00C9
:10061000A0860100B0B586B0044601A81421FFF7FA
:1006200007FE21681448814224D10025134C00950F
:10063000216800F5D83041F002012160216801F005
:1006400002010091042105910321049101210391EC
:1006500012210291C0210191009901A9FFF74AFEE0
:100660000095206940F400102061206900F400101A
:100670000090009806B0B0BD0054004030380240F1
:100680002048044940680A6810440860704700BF69
:1006900000000020C005002080B50B48016841F42F
:1006A00000710160016841F480610160016841F4FA
:1006B00080710160032000F079F8002000F006F856
:1006C00000F022F8002080BD003C024070B50D4EC5
:1006D000044670684FF47A71B1FBF0F08F490968F5
:1006E000B1FBF0F000F0B2FB01250F2C08D838B9AF
:1006F0004FF0FF3021460022002500F02FF8346033
:10070000284670BD0000002082B000200B490190F7
:100710004A6842F480424A604A6802F48042019288
:10072000019A0090086840F080500860086800F066
:1007300080500090009802B0704700BF40380240DF
:10074000002808D400F01F01012202FA01F1024A38
:10075000400942F82010704700E100E0B0B500F019
:100760000F04184D043C2C440C340F4BB0F1FF3FE8
:10077000C8BFC41828684FF0FF35C0F30220C31E5D
:1007800080F0070038BF0023042828BF042005FAA2
:1007900000F021EA000005FA03F1984022EA010185
:1007A000084300012070B0BD00E400E005494FF6A9
:1007B000FF030A681A4060F30A22034810430860E6
:1007C000704700BF0CED00E00000FA052DE9F04194
:1007D000002800F08680444B0446D3F80004884685
:1007E00000F00F00884207D283F80084D3F8000499
:1007F00000F00F00404574D12068810711D54107F2
:1008000003D5996841F4E0519960010703D59968CF
:1008100041F460419960A1689A6822F0F0021143A6
:100820009960C0072BD06068811E022903D2196825
:10083000890109D455E0012803D11968890303D43B
:100840004FE0196889074CD599681D4621F00301CE
:1008500008439860FFF722FE064641F28837606839
:10086000A9682B4601F00C01B1EB800F07D0FFF710
:1008700015FE801BB842F2D90320BDE8F081D3F801
:10088000000400F00F00404507D983F80084D3F836
:10089000000400F00F00404523D12068410705D532
:1008A000E1689A6822F4E05211439960000706D586
:1008B0002069996821F4604141EAC00098601C46B3
:1008C00000F032F8A168094AC1F30311515CC84035
:1008D0001249086006480068FFF7F8FE0020BDE8EE
:1008E000F0810120BDE8F08100380240CA190008FB
:1008F0000000002009480A4900680968094AC1F354
:100900008221515CC8407047044805490068096865
:10091000044AC1F34231515CC840704708000020CE
:1009200008380240DA19000810B5134C606800F06E
:100930000C011248082903D004291CD1104810BD0D
:100940002168236801F03F0221685B02C1F388112E
:1009500005D4A1FB00010023FFF732FC03E00848A7
:100960004843B0FBF2F021680222C1F3014102EBDF
:100970004101B0FBF1F010BD043802400024F40046
:1009800000127A002DE9FC41002800F0C8800446DE
:100990000078BE4EC00744D0B06800F00C000428B8
:1009A00005D1306880033CD56068D0BBB7E0B06843
:1009B00000F00C00082802D170684002F1D467688A
:1009C000B7F5803F06D03068B7F5A02F12D140F4BC
:1009D00080203060306840F480303060FFF75EFD8A
:1009E0000546306880031CD4FFF758FD401B64287F
:1009F000F7D9D7E020F480303060306820F48020D0
:100A00003060FFF74BFD0546002FEAD106E0FFF707
:100A100045FD411B0320642900F2368130688003C4
:100A2000F5D4207880072CD5B06810F00C0F07D0D3
:100A3000B06800F00C00082809D17068400206D4A4
:100A40003068800716D5E068012813D067E0E068B9
:100A5000002800F0C8808E4801210160FFF71EFDCC
:100A600005463068800705D4FFF718FD401B0228B3
:100A7000F7D997E02069316821F0F80141EAC00018
:100A800030602078000720D56169814871B101216B
:100A9000C0F8801EFFF702FD0546706F800714D472
:100AA000FFF7FCFC401B0228F7D97BE00021C0F8CF
:100AB000801EFFF7F3FC0546706F800705D5FFF732
:100AC000EDFC401B0228F7D96CE02078400729D4C0
:100AD000A769002F00F0D780B06800F00C0008284C
:100AE00063D1012F1BD0E169706800F480028A4253
:100AF00015D1216A00F03F028A4210D147F6C07139
:100B0000626A014091420AD1A16A00F440328A42ED
:100B100005D1E16A00F07060884200F0B4800120E5
:100B2000BDE8FC81306C4FF00008C0000CD4CDF85B
:100B30000480306C4FF0010840F080503064306C1D
:100B400000F0805001900198524F3868C0050FD4D2
:100B5000386840F480703860FFF7A0FC05463868BC
:100B6000C00505D4FFF79AFC401B0228F7D919E00D
:100B7000A768012F05D0306F052F45D140F0040044
:100B80003067306F40F001003067FFF787FC0546A3
:100B900041F28837306F80074ED4FFF77FFC401B4F
:100BA000B842F7D90320BDE8FC81394900208846C6
:100BB0000866FFF773FC0546022F0AD147463068E6
:100BC000800142D5FFF76AFC411B03200229F6D9B8
:100BD0005AE03068800156D5FFF760FC411B0320C6
:100BE0000229F6D950E02A4800210160FFF756FC9F
:100BF0000546306880077FF544AFFFF74FFC411B87
:100C000003200229F5D93FE020F001003067306F62
:100C100020F004003067FFF741FC0546002FB7D1F4
:100C200041F28837306F800706D5FFF737FC411B4C
:100C30000320B942F6D927E0B8F1000F3FF448AFDE
:100C4000306C20F08050306442E71C341FCC0843E5
:100C500040EA8210D9034FF6FF72914340EA0460E4
:100C6000A1F580310843706001203866FFF716FC5B
:100C700004463068800106D4FFF710FC011B0320F6
:100C80000229F6D900E00020BDE8FC8100380240CE
:100C90000000474200700040F8B590B30024846221
:100CA0000546406D00284FF0000004D128462C6511
:100CB00000F02AF8A86A0221696595E84E001A43F7
:100CC0000F68324327F040070F602B691A436B69A6
:100CD0001A43AB6903F400763243EE6932432E6A5D
:100CE00032431043086004206A6A00EA134010434C
:100CF0004860C86920F40060C8610120AC6568657F
:100D000000E001242046F8BD2DE9F04186B00446FC
:100D100001A81421FFF78CFA20684749884227D0A0
:100D20004649884248D04649884240F082800020A7
:100D3000444900904A6942F480524A614A6902F487
:100D400080520092009A00900A6842F001020A6004
:100D5000096801F001010091052105910321CDE908
:100D6000030102200290E0200190009836485DE0E7
:100D70000020344900900A6942F480420A610A69FD
:100D800002F480420092009A00900A6842F0020247
:100D90000A60096801F00201009105210591032113
:100DA000CDE90301022002904FF4604001900098C9
:100DB000254800F5806039E000242248009401694C
:100DC000214D41F40041016101694FF0060801F431
:100DD00000410091009900940168032641F004014C
:100DE00001600168022701F004010091009900945C
:100DF000016841F002010160006801A900F00200F1
:100E0000009000984FF44060CDF81480CDE903467F
:100E10000297019005F50060FFF76CFA2020CDE9FC
:100E20000468CDE90274019005F5806001A9FFF71F
:100E300061FA06B0BDE8F08100380040003C004097
:100E4000003001403038024000000240411E0020C6
:100E5000B0EB116F1CBF01207047044AF0235160B2
:100E600003490B70072190601160704710E000E0AB
:100E700023ED00E070470000F8B504460068016803
:100E8000C268466901F02F0502F02003202D05D12C
:100E900023B12046BDE8F84000F0CEBA5FEA017EFB
:100EA00007D006F0010686F0010712F4907F23D1E7
:100EB00017B311400A060CD4490678D5C16821F051
:100EC0004001C1602020E0632046BDE8F84000F00A
:100ED00037BAE16B21296AD1A268216AB2F5805F35
:100EE0005CD10A886FF35F2242602269002A14BF36
:100EF00001310231216255E0CD0718BF12F480752F
:100F000003D0656C45F00105656401F004054FF000
:100F1000010C8CEA95053D4303D1656C45F0020553
:100F2000656401F002058CEA55053D4303D1656C0B
:100F300045F004056564334318BF0123BEF1000F7B
:100F400004D51BB1636C43F008036364636C73B333
:100F50001140890603D5204600F06EFA20684069EA
:100F6000616C00F0400001F00801401825D02046D7
:100F700000F056FA20684169490619D5416921F007
:100F800040014161606B98B113494165FFF792F9E7
:100F900068B1606B416DBDE8F84008474A1C2262A9
:100FA00009784160E18C0139E18409040BD0F8BD76
:100FB0002046BDE8F840FFF75DBF2046FFF75AFF27
:100FC00000206064F8BDC16821F08001C160C16883
:100FD00041F04001C160F8BD1514000828B310B5F8
:100FE0000446C06B20B90020A063204600F020F822
:100FF0002420E0632068C16821F40051C1602046CC
:1010000000F054FA2068016921F4904101614169BE
:1010100021F02A014161C16841F40051C160002002
:1010200020216064E163216410BD0120704700004D
:101030002DE9F04387B0044602A81421FFF7F8F821
:1010400020689A4988423CD09949884263D099499E
:10105000884200F08D809849884200F0B580974919
:10106000884200F0F4809649884240F01C810020BC
:10107000944901900A6942F400220A610A6902F463
:1010800000220192019A0190086840F00100086076
:101090000868012100F0010001900820069003205B
:1010A000059004910221CDE902010198864802A928
:1010B000FFF720F9342000210022FFF74FFB3420F6
:1010C000EFE000207F4901900A6942F400320A6192
:1010D0000A6902F400320192019A01900A6842F012
:1010E00001020A60096801F00101019107210691DE
:1010F0000321CDE90401022003900C200290019805
:10110000714802A9FFF7F6F8262000210022FFF718
:1011100025FB2620C5E000206A4901900A6942F4B7
:1011200080220A610A6902F480220192019A0190E8
:101130000A6842F002020A60096801F002010191A6
:10114000072106910321CDE90401022003904FF409
:101150004060029001985C4802A900F58060FFF7AA
:10116000C9F8272000210022FFF7F8FA272098E08D
:101170000020544901904A6942F020024A614A69BC
:1011800002F020020192019A01900A6842F00402E2
:101190000A60096801F00401019108210691032108
:1011A000CDE9040102200390C02002900198464836
:1011B00002A900F50060FFF79DF8472000210022FA
:1011C000FFF7CCFA47206CE000213E48019102690C
:1011D0003D4E42F48012026102694FF0080802F4A9
:1011E00080120192019A019102684FF0030942F0C6
:1011F000040202600268012702F004020192019ACF
:1012000001910168022541F008010160006802AC0B
:1012100000F00800019001984FF48050CDF818803C
:10122000CDF8149004970395029006F500602146CE
:10123000FFF760F803A8CDF8188080E8A00204202A
:10124000029006F540602146FFF754F82BE000209D
:101250001C4901904A6942F010024A614A6902F051
:1012600010020192019A01900A6842F001020A609C
:10127000096801F001010191072106910321CDE9DF
:101280000401022003904FF4C060029001980E48C0
:1012900002A9FFF72FF8252000210022FFF75EFAB0
:1012A0002520FFF74DFA07B0BDE8F0830044004069
:1012B0000048004000140140005000400010014070
:1012C000004C00403038024000000240B0B50346F8
:1012D000006C202805D10120D1B1CAB1986B01283A
:1012E00001D10220B0BD00202224DA8558641C649C
:1012F0001C68E56845F48075E560656945F00105A1
:1013000065619A8599629863E16841F02001E16026
:10131000B0BD000010B50748074902780B78074CAC
:10132000A354013202709A480122BDE81040FFF731
:10133000CDBF00BF100000205C000020C4040020CE
:101340007047FEE7FEE7FEE770477047FFF798B982
:10135000B0B592B0002401A81421CDE90A44CDE92A
:101360000844FEF765FF1F4800940168022541F01C
:1013700080510160006800F08050009000981A4889
:101380000094016841F480410160006800F48040ED
:10139000009007201190A82010950F9004200E9027
:1013A0004FF48000CDE90C504FF4803007900120BD
:1013B0000690009806A8FFF7E5FA80B94FF4805030
:1013C00005904FF4A05004900F20CDE902540190F5
:1013D00001A80521FFF7FAF908B912B0B0BDFEF770
:1013E00065FF00BF40380240007000400548D0F85B
:1013F000801041F47001C0F880104FF0006101606E
:10140000704700BF08ED00E00148FFF735BD00BFA1
:1014100034040020C06B0021C185C184FFF72ABDC0
:101420000168CA6822F49072CA604A6922F0010217
:101430004A61202101647047016C222923D181680F
:10144000B1F5805F08D102680369816A526883B18F
:10145000D2B221F8012B10E0016802694968002A24
:10146000826A02F10103836218BF01F07F011170EB
:1014700004E06FF35F2221F8022B8162C18D0139F4
:10148000C185090400D070470168CA6822F02002B3
:10149000CA60CA6822F48072CA604A6922F00102F6
:1014A0004A6120210164FFF735BF0000B0B5044652
:1014B000006804F108030ECB0569194325F4405573
:1014C0002A430261C268636949F20C651943E36902
:1014D000AA4319431143C1604169A26921F44071D3
:1014E00011434161274940F48060B3F5004F04D1B6
:1014F000884207D1FFF708FA06E0884221D1FFF7BA
:1015000003FA20E0FFF7F6F963681921A0FB010157
:101510005A00DB0FFEF754FE6421B0FBF1F26FF0CE
:10152000630302FB0300322303EBC000B0FBF1F1C5
:101530004FF4F87000EA410000EB021001F00701DF
:101540001BE0FFF7D7F963681921A0FB01019A009E
:101550009B0FFEF735FE6421B0FBF1F26FF06303E1
:1015600002FB0300322303EB0010B0FBF1F101F0AA
:10157000F00000EB021001F00F01084321688860C1
:10158000B0BD00BF001401400148FFF775BC00BFAB
:101590005C030020FB48FFF76FBC00BFFA48FFF771
:1015A0006BBC00BF0148FFF767BC00BF1400002000
:1015B000FEE700008AB0FFF76FF8FFF7C9FE4FF0B3
:1015C0000008E848CDF82480CDF810800168E64E88
:1015D00041F010010160016806F5EC3A01F01001DC
:1015E00004910499CDF810800168E04C41F00401A9
:1015F00001600168002201F0040104910499CDF812
:10160000108001684FF6E07741F0800101600168C9
:1016100001F0800104910499CDF81080016841F037
:1016200001010160016801F0010104910499CDF804
:101630001080016841F002010160016801F00201BF
:1016400004910499CDF81080016841F0080101600F
:1016500000684FF6E07100F00800049004985046CE
:10166000A04706F5E83B58464EF23C010022A04751
:1016700006F5E63041F2071100220190A04706F579
:10168000EA3528464BF610410022A04706F5E4361D
:1016900030464FF401410022A0470124CDE90788DC
:1016A000CDE9057405AFDFF8C89250463946CDF84C
:1016B00008A0C8474EF23C00CDF82080CDE906488E
:1016C000059058463946CDF80CB0AB46C847A94DF1
:1016D0001020CDF81C800695059030463946C84745
:1016E00041F20710CDF82080CDE906480590019819
:1016F0003946C8474FF44070CDE906580590584622
:101700003946C8474BF61040CDF82080CDE9064851
:10171000059058463946C8474FF40140CDF820801F
:10172000CDE90648904C059030463946B246C84748
:101730000820CDE90688059058463946C8478E48A6
:101740004FF4827104F578424FF40073C0E9002130
:101750000A21C0E90288C0E90488C0E90638C0E966
:101760000888C0E90A81FFF797FA002840F0F8805E
:1017700082480C274FF4E13104F5A052C0E9002162
:10178000C0E90288C0E90487C0E90688FFF726FCA3
:10179000002840F0E5807A4800254FF4164104F512
:1017A0005842A046C0E90021C0E90255C0E90457EB
:1017B000C0E90655FFF712FC002840F0D1807148BF
:1017C0000C244FF4E13608F54061C0E90016C0E989
:1017D0000255C0E90454C0E90655FFF7FFFB002895
:1017E00040F0BE806848002708F5805180E8C200BC
:1017F000C0E90377C0E90547C761FFF7EFFB0028A1
:1018000040F0AE80614D08F55C41284640F8041F69
:101810000C214FF4E1324446C0E90127C0E90377C7
:10182000C0E90517C761FFF7D9FB002840F0988091
:101830005748584A00274FF4804104F5E0530762A7
:10184000C0E90032C0E90277C0E90417C0E90677B1
:10185000FEF728FE002840F083804F484FF4827145
:101860004FF40072C0E900410A21C0E90277C0E9E3
:101870000477C0E90627C0E90877C0E90A71FFF7D5
:101880000BFA00286CD1454800270C214FF4E132B7
:1018900004F5C053C0E90032C0E90277C0E9047121
:1018A000C0E90677FFF79AFB002859D13C480A2384
:1018B0004FF482714FF40072C0E90877C0E90A73EF
:1018C00004F58063C0E90031C0E90277C0E904771C
:1018D000C0E90627FFF7E0F9002841D10298234C20
:1018E00020210122A0472F49281D4FF4C872FFF77D
:1018F000EDFC039E202130460122A04758464FF4BC
:1019000000410022A047284D4FF47A70A84758465E
:101910004FF400410122A047304608210022A04791
:101920004FF4FA70A847304608210122A0474FF42F
:10193000FA70A8474FF4FA60A84750464FF48071F8
:101940000022A0470A20A847584610210022A0479D
:1019500050464FF480710122A0470A20A847FEE7B5
:10196000FEF7A4FC30380240003800409104000823
:10197000F502000800001110480200203404002085
:101980005C030020A4030020EC03002010000020D2
:10199000EC010020A0860100A40200207C040020AD
:1019A000000300205C000020D502000802E008C807
:1019B000121F08C1002AFAD170477047002001E0C9
:1019C00001C1121F002AFBD1704700000000000077
:1019D00000000102030406070809000000000102DC
:1019E00003040000081A0008000000201000000096
:1019F000AC190008181A000810000020B8090000EF
:101A0000BC190008000000001000000001000000E8
:081A10000024F40000000000B6
:040000050800018965
:00000001FF
